:1000000012C021C020C01FC01EC01DC01CC01BC00C
:100010001AC019C018C017C016C015C014C013C02C
:1000200012C011C010C011241FBECFE5D4E0DEBF46
:10003000CDBF20E0A0E6B0E001C01D92A236B2071D
:10004000E1F747D095C0DCCFB89ABB9ABC9AC0986C
:10005000C398C4980895E2E6F0E020E630E068E056
:1000600050E04291862F952F442314F4C09A01C08A
:10007000C098C39AC398440F01970097A9F7E21755
:10008000F30779F7C49AC4980895672B81F0FA01B1
:10009000E05AFF4F21E030E0A90102C0440F551F94
:1000A0008A95E2F7CA019081892B808310C0FA01FA
:1000B000E05AFF4F21E030E0A90102C0440F551F74
:1000C0008A95E2F7CA018095908189238083C3DFF6
:1000D0000895BADF00E010E0E12CF12C14C0A80173
:1000E00061E070E0CE01D1DF2FEF82E597E0215093
:1000F00080409040E1F700C000002196C830D10553
:1001000071F70F5F1F4F02301105B4F0CE2DDF2DB8
:100110004E2D5F2D6E2D7F2DCE01B7DF9FEF22E597
:1001200087E0915020408040E1F700C00000219618
:10013000C830D10569F719C0CE2DDF2DD0CF41E0F1
:1001400050E06E2D7F2DCE01A0DF8FEF92E527E0EE
:10015000815090402040E1F700C000002196C83057
:10016000D10569F70E2D1F2DCECFCE2DDF2DE7CF78
:04017000F894FFCF31
:00000001FF
